{
  "_format": "hh3-artifact-1",
  "contractName": "TokenSwap",
  "sourceName": "contracts/TokenSwap.sol",
  "abi": [
    {
      "inputs": [],
      "stateMutability": "nonpayable",
      "type": "constructor"
    },
    {
      "anonymous": false,
      "inputs": [
        {
          "indexed": true,
          "internalType": "address",
          "name": "token",
          "type": "address"
        },
        {
          "indexed": true,
          "internalType": "address",
          "name": "provider",
          "type": "address"
        },
        {
          "indexed": false,
          "internalType": "uint256",
          "name": "amount",
          "type": "uint256"
        }
      ],
      "name": "LiquidityAdded",
      "type": "event"
    },
    {
      "anonymous": false,
      "inputs": [
        {
          "indexed": true,
          "internalType": "address",
          "name": "tokenIn",
          "type": "address"
        },
        {
          "indexed": true,
          "internalType": "address",
          "name": "tokenOut",
          "type": "address"
        },
        {
          "indexed": true,
          "internalType": "address",
          "name": "user",
          "type": "address"
        },
        {
          "indexed": false,
          "internalType": "uint256",
          "name": "amountIn",
          "type": "uint256"
        },
        {
          "indexed": false,
          "internalType": "uint256",
          "name": "amountOut",
          "type": "uint256"
        }
      ],
      "name": "Swap",
      "type": "event"
    },
    {
      "inputs": [],
      "name": "FEE_BPS",
      "outputs": [
        {
          "internalType": "uint256",
          "name": "",
          "type": "uint256"
        }
      ],
      "stateMutability": "view",
      "type": "function"
    },
    {
      "inputs": [
        {
          "internalType": "address",
          "name": "token",
          "type": "address"
        },
        {
          "internalType": "uint256",
          "name": "amount",
          "type": "uint256"
        }
      ],
      "name": "addLiquidity",
      "outputs": [],
      "stateMutability": "nonpayable",
      "type": "function"
    },
    {
      "inputs": [
        {
          "internalType": "address",
          "name": "",
          "type": "address"
        },
        {
          "internalType": "address",
          "name": "",
          "type": "address"
        }
      ],
      "name": "exchangeRates",
      "outputs": [
        {
          "internalType": "uint256",
          "name": "",
          "type": "uint256"
        }
      ],
      "stateMutability": "view",
      "type": "function"
    },
    {
      "inputs": [
        {
          "internalType": "address",
          "name": "tokenIn",
          "type": "address"
        },
        {
          "internalType": "address",
          "name": "tokenOut",
          "type": "address"
        },
        {
          "internalType": "uint256",
          "name": "amountIn",
          "type": "uint256"
        }
      ],
      "name": "getQuote",
      "outputs": [
        {
          "internalType": "uint256",
          "name": "amountOut",
          "type": "uint256"
        }
      ],
      "stateMutability": "view",
      "type": "function"
    },
    {
      "inputs": [
        {
          "internalType": "address",
          "name": "token",
          "type": "address"
        }
      ],
      "name": "getReserve",
      "outputs": [
        {
          "internalType": "uint256",
          "name": "",
          "type": "uint256"
        }
      ],
      "stateMutability": "view",
      "type": "function"
    },
    {
      "inputs": [
        {
          "internalType": "address",
          "name": "",
          "type": "address"
        }
      ],
      "name": "isLiquidityProvider",
      "outputs": [
        {
          "internalType": "bool",
          "name": "",
          "type": "bool"
        }
      ],
      "stateMutability": "view",
      "type": "function"
    },
    {
      "inputs": [
        {
          "internalType": "uint256",
          "name": "",
          "type": "uint256"
        }
      ],
      "name": "liquidityProviders",
      "outputs": [
        {
          "internalType": "address",
          "name": "",
          "type": "address"
        }
      ],
      "stateMutability": "view",
      "type": "function"
    },
    {
      "inputs": [],
      "name": "owner",
      "outputs": [
        {
          "internalType": "address",
          "name": "",
          "type": "address"
        }
      ],
      "stateMutability": "view",
      "type": "function"
    },
    {
      "inputs": [
        {
          "internalType": "address",
          "name": "",
          "type": "address"
        }
      ],
      "name": "reserves",
      "outputs": [
        {
          "internalType": "uint256",
          "name": "",
          "type": "uint256"
        }
      ],
      "stateMutability": "view",
      "type": "function"
    },
    {
      "inputs": [
        {
          "internalType": "address",
          "name": "tokenA",
          "type": "address"
        },
        {
          "internalType": "address",
          "name": "tokenB",
          "type": "address"
        },
        {
          "internalType": "uint256",
          "name": "rate",
          "type": "uint256"
        }
      ],
      "name": "setExchangeRate",
      "outputs": [],
      "stateMutability": "nonpayable",
      "type": "function"
    },
    {
      "inputs": [
        {
          "internalType": "address",
          "name": "tokenIn",
          "type": "address"
        },
        {
          "internalType": "address",
          "name": "tokenOut",
          "type": "address"
        },
        {
          "internalType": "uint256",
          "name": "amountIn",
          "type": "uint256"
        }
      ],
      "name": "swap",
      "outputs": [
        {
          "internalType": "uint256",
          "name": "amountOut",
          "type": "uint256"
        }
      ],
      "stateMutability": "nonpayable",
      "type": "function"
    }
  ],
  "bytecode": "0x6080604052348015600e575f5ffd5b50600480546001600160a01b03191633179055610aca8061002e5f395ff3fe608060405234801561000f575f5ffd5b50600436106100a6575f3560e01c806399f7854a1161006e57806399f7854a1461014d578063bf333f2c1461017f578063c515ee2314610187578063c9a396e91461019a578063d66bd524146101c2578063df791e50146101e1575f5ffd5b8063503fa44f146100aa57806356688700146100e7578063782aaeea146100fc5780638da5cb5b1461010f578063962129161461013a575b5f5ffd5b6100d46100b8366004610935565b600160209081525f928352604080842090915290825290205481565b6040519081526020015b60405180910390f35b6100fa6100f5366004610966565b6101f4565b005b6100fa61010a36600461098e565b61039d565b600454610122906001600160a01b031681565b6040516001600160a01b0390911681526020016100de565b6101226101483660046109c8565b6104a0565b61016f61015b3660046109df565b60036020525f908152604090205460ff1681565b60405190151581526020016100de565b6100d4601e81565b6100d461019536600461098e565b6104c8565b6100d46101a83660046109df565b6001600160a01b03165f9081526020819052604090205490565b6100d46101d03660046109df565b5f6020819052908152604090205481565b6100d46101ef36600461098e565b6105a6565b5f81116102485760405162461bcd60e51b815260206004820152601d60248201527f416d6f756e74206d7573742062652067726561746572207468616e203000000060448201526064015b60405180910390fd5b6040516323b872dd60e01b8152336004820152306024820152604481018290526001600160a01b038316906323b872dd906064016020604051808303815f875af1158015610298573d5f5f3e3d5ffd5b505050506040513d601f19601f820116820180604052508101906102bc91906109ff565b506001600160a01b0382165f90815260208190526040812080548392906102e4908490610a32565b9091555050335f9081526003602052604090205460ff16610359576002805460018181019092557f405787fa12a823e0f2b7631cc41b3ba8828b3321ca811111fa75cd3aa3bb5ace0180546001600160a01b031916339081179091555f908152600360205260409020805460ff191690911790555b60405181815233906001600160a01b038416907f9d278c56ba6dc86a12eefe6b43112bd6e06648eb4ec0b950ee2d783d40e2acb49060200160405180910390a35050565b6004546001600160a01b031633146103e45760405162461bcd60e51b815260206004820152600a60248201526927b7363c9037bbb732b960b11b604482015260640161023f565b5f81116104335760405162461bcd60e51b815260206004820152601b60248201527f52617465206d7573742062652067726561746572207468616e20300000000000604482015260640161023f565b6001600160a01b038084165f908152600160209081526040808320938616835292905220819055610473816ec097ce7bc90715b34b9f1000000000610a4b565b6001600160a01b039283165f90815260016020908152604080832096909516825294909452919092205550565b600281815481106104af575f80fd5b5f918252602090912001546001600160a01b0316905081565b6001600160a01b038084165f9081526001602090815260408083209386168352929052908120546105335760405162461bcd60e51b8152602060048201526015602482015274115e18da185b99d9481c985d19481b9bdd081cd95d605a1b604482015260640161023f565b6001600160a01b038085165f90815260016020908152604080832093871683529290522054670de0b6b3a764000061056b8285610a6a565b6105759190610a4b565b91505f612710610586601e85610a6a565b6105909190610a4b565b905061059c8184610a81565b9695505050505050565b5f5f82116105f65760405162461bcd60e51b815260206004820152601d60248201527f416d6f756e74206d7573742062652067726561746572207468616e2030000000604482015260640161023f565b6001600160a01b0384165f908152602081905260409020548211156106565760405162461bcd60e51b8152602060048201526016602482015275496e73756666696369656e74206c697175696469747960501b604482015260640161023f565b6001600160a01b038085165f908152600160209081526040808320938716835292905220546106bf5760405162461bcd60e51b8152602060048201526015602482015274115e18da185b99d9481c985d19481b9bdd081cd95d605a1b604482015260640161023f565b6040516323b872dd60e01b8152336004820152306024820152604481018390526001600160a01b038516906323b872dd906064016020604051808303815f875af115801561070f573d5f5f3e3d5ffd5b505050506040513d601f19601f8201168201806040525081019061073391906109ff565b506001600160a01b038085165f90815260016020908152604080832093871683529290522054670de0b6b3a764000061076c8285610a6a565b6107769190610a4b565b91505f612710610787601e85610a6a565b6107919190610a4b565b905061079d8184610a81565b6001600160a01b0386165f908152602081905260409020549093508311156107ff5760405162461bcd60e51b8152602060048201526015602482015274496e73756666696369656e7420726573657276657360581b604482015260640161023f565b6001600160a01b0386165f9081526020819052604081208054869290610826908490610a32565b90915550506001600160a01b0385165f9081526020819052604081208054859290610852908490610a81565b909155505060405163a9059cbb60e01b8152336004820152602481018490526001600160a01b0386169063a9059cbb906044016020604051808303815f875af11580156108a1573d5f5f3e3d5ffd5b505050506040513d601f19601f820116820180604052508101906108c591906109ff565b50604080518581526020810185905233916001600160a01b0388811692908a16917fcd3829a3813dc3cdd188fd3d01dcf3268c16be2fdd2dd21d0665418816e46062910160405180910390a450509392505050565b80356001600160a01b0381168114610930575f5ffd5b919050565b5f5f60408385031215610946575f5ffd5b61094f8361091a565b915061095d6020840161091a565b90509250929050565b5f5f60408385031215610977575f5ffd5b6109808361091a565b946020939093013593505050565b5f5f5f606084860312156109a0575f5ffd5b6109a98461091a565b92506109b76020850161091a565b929592945050506040919091013590565b5f602082840312156109d8575f5ffd5b5035919050565b5f602082840312156109ef575f5ffd5b6109f88261091a565b9392505050565b5f60208284031215610a0f575f5ffd5b815180151581146109f8575f5ffd5b634e487b7160e01b5f52601160045260245ffd5b80820180821115610a4557610a45610a1e565b92915050565b5f82610a6557634e487b7160e01b5f52601260045260245ffd5b500490565b8082028115828204841417610a4557610a45610a1e565b81810381811115610a4557610a45610a1e56fea2646970667358221220a326077237fe3ccc206082731b1d3e6004792fbd2a740462ed884afe538a68f364736f6c634300081c0033",
  "linkReferences": {},
  "deployedLinkReferences": {},
  "immutableReferences": {},
  "inputSourceName": "project/contracts/TokenSwap.sol",
  "buildInfoId": "solc-0_8_28-808d6831e05d8ba367701407a9b6cecd87b9f7f2"
}